{
  "contractName": "Decentragram",
  "abi": [
    {
      "inputs": [
        {
          "internalType": "uint256",
          "name": "",
          "type": "uint256"
        }
      ],
      "name": "images",
      "outputs": [
        {
          "internalType": "uint256",
          "name": "id",
          "type": "uint256"
        },
        {
          "internalType": "string",
          "name": "hash",
          "type": "string"
        },
        {
          "internalType": "string",
          "name": "description",
          "type": "string"
        },
        {
          "internalType": "uint256",
          "name": "tipAmount",
          "type": "uint256"
        },
        {
          "internalType": "address payable",
          "name": "author",
          "type": "address"
        }
      ],
      "stateMutability": "view",
      "type": "function"
    },
    {
      "inputs": [],
      "name": "name",
      "outputs": [
        {
          "internalType": "string",
          "name": "",
          "type": "string"
        }
      ],
      "stateMutability": "view",
      "type": "function"
    },
    {
      "inputs": [],
      "name": "uploadImage",
      "outputs": [],
      "stateMutability": "nonpayable",
      "type": "function"
    }
  ],
  "bytecode": "0x60806040526040518060400160405280600c81526020017f446563656e7472616772616d00000000000000000000000000000000000000008152506000908051906020019061004f929190610062565b5034801561005c57600080fd5b50610166565b82805461006e90610105565b90600052602060002090601f01602090048101928261009057600085556100d7565b82601f106100a957805160ff19168380011785556100d7565b828001600101855582156100d7579182015b828111156100d65782518255916020019190600101906100bb565b5b5090506100e491906100e8565b5090565b5b808211156101015760008160009055506001016100e9565b5090565b6000600282049050600182168061011d57607f821691505b6020821081141561013157610130610137565b5b50919050565b7f4e487b7100000000000000000000000000000000000000000000000000000000600052602260045260246000fd5b6106f3806101756000396000f3fe608060405234801561001057600080fd5b50600436106100415760003560e01c806306fdde03146100465780638485648214610064578063e09fb11914610098575b600080fd5b61004e6100a2565b60405161005b9190610526565b60405180910390f35b61007e600480360381019061007991906104a6565b610130565b60405161008f959493929190610548565b60405180910390f35b6100a0610296565b005b600080546100af90610634565b80601f01602080910402602001604051908101604052809291908181526020018280546100db90610634565b80156101285780601f106100fd57610100808354040283529160200191610128565b820191906000526020600020905b81548152906001019060200180831161010b57829003601f168201915b505050505081565b600160205280600052604060002060009150905080600001549080600101805461015990610634565b80601f016020809104026020016040519081016040528092919081815260200182805461018590610634565b80156101d25780601f106101a7576101008083540402835291602001916101d2565b820191906000526020600020905b8154815290600101906020018083116101b557829003601f168201915b5050505050908060020180546101e790610634565b80601f016020809104026020016040519081016040528092919081815260200182805461021390610634565b80156102605780601f1061023557610100808354040283529160200191610260565b820191906000526020600020905b81548152906001019060200180831161024357829003601f168201915b5050505050908060030154908060040160009054906101000a900473ffffffffffffffffffffffffffffffffffffffff16905085565b6040518060a00160405280600181526020016040518060400160405280600681526020017f616273313233000000000000000000000000000000000000000000000000000081525081526020016040518060400160405280600b81526020017f48656c6c6f20576f726c640000000000000000000000000000000000000000008152508152602001600a8152602001600073ffffffffffffffffffffffffffffffffffffffff16815250600160006001815260200190815260200160002060008201518160000155602082015181600101908051906020019061037a9291906103ee565b5060408201518160020190805190602001906103979291906103ee565b506060820151816003015560808201518160040160006101000a81548173ffffffffffffffffffffffffffffffffffffffff021916908373ffffffffffffffffffffffffffffffffffffffff160217905550905050565b8280546103fa90610634565b90600052602060002090601f01602090048101928261041c5760008555610463565b82601f1061043557805160ff1916838001178555610463565b82800160010185558215610463579182015b82811115610462578251825591602001919060010190610447565b5b5090506104709190610474565b5090565b5b8082111561048d576000816000905550600101610475565b5090565b6000813590506104a0816106a6565b92915050565b6000602082840312156104b857600080fd5b60006104c684828501610491565b91505092915050565b6104d8816105c5565b82525050565b60006104e9826105a9565b6104f381856105b4565b9350610503818560208601610601565b61050c81610695565b840191505092915050565b610520816105f7565b82525050565b6000602082019050818103600083015261054081846104de565b905092915050565b600060a08201905061055d6000830188610517565b818103602083015261056f81876104de565b9050818103604083015261058381866104de565b90506105926060830185610517565b61059f60808301846104cf565b9695505050505050565b600081519050919050565b600082825260208201905092915050565b60006105d0826105d7565b9050919050565b600073ffffffffffffffffffffffffffffffffffffffff82169050919050565b6000819050919050565b60005b8381101561061f578082015181840152602081019050610604565b8381111561062e576000848401525b50505050565b6000600282049050600182168061064c57607f821691505b602082108114156106605761065f610666565b5b50919050565b7f4e487b7100000000000000000000000000000000000000000000000000000000600052602260045260246000fd5b6000601f19601f8301169050919050565b6106af816105f7565b81146106ba57600080fd5b5056fea264697066735822122099d1b1e1137e7d961579966204cf12bc73c3ca2eee45211f61e25aae0eefbb5764736f6c63430008000033",
  "immutableReferences": {},
  "source": "// SPDX-License-Identifier: MIT\r\npragma solidity ^0.8.0;\r\n\r\ncontract Decentragram {\r\n   string public name = \"Decentragram\";\r\n   mapping(uint => Image) public images;\r\n\r\n\r\n   struct Image{\r\n      uint id;\r\n      string hash;\r\n      string description;\r\n      uint tipAmount;\r\n      address payable author;\r\n   }\r\n\r\n   function uploadImage() public{\r\n      images[1] = Image(\r\n         1,\r\n         \"abs123\",\r\n         \"Hello World\",\r\n         10,\r\n         payable(address(0x0))\r\n      );\r\n   }\r\n}",
  "sourcePath": "C:\\Users\\pin-d\\Desktop\\projects\\web_projects\\tutorials\\Dapp_University\\decentragram\\src\\contracts\\Decentragram.sol",
  "compiler": {
    "name": "solc",
    "version": "0.8.0+commit.c7dfd78e.Emscripten.clang"
  },
  "schemaVersion": "3.4.5",
  "updatedAt": "2022-04-18T15:28:12.705Z",
  "devdoc": {
    "kind": "dev",
    "methods": {},
    "version": 1
  },
  "userdoc": {
    "kind": "user",
    "methods": {},
    "version": 1
  }
}